:100000000C9467000C9491000C9491000C94910056
:100010000C9491000C9491000C9491000C9491001C
:100020000C9491000C9491000C9491000C9491000C
:100030000C9491000C9491000C9491000C949100FC
:100040000C9491000C9491000C9466050C94910012
:100050000C9491000C9491000C9491000C949100DC
:100060000C9491000C9491000C9491000C949100CC
:100070000C94AC020C9482020C9491000C949100AC
:100080000C9491000C9491000C94910000000000DD
:1000900000008000000000000000800000008B00D5
:1000A0000000800000008B0000008B0000008B002F
:1000B0000000FF0000A5FF00FFFFFF0000A5FF00FC
:1000C0000000FF0000008B0000000000490911241F
:1000D0001FBECFEFD0E4DEBFCDBF11E0A0E0B1E0A6
:1000E000E0E2F4E100E00BBF02C007900D92AA33FA
:1000F000B107D9F722E0AAE3B1E001C01D92A03315
:10010000B207E1F710E0C7E6D0E004C02197FE0196
:100110000E94F109C636D107C9F70E9468070C94FE
:100120000E0A0C94000080E991E00895089580E0A3
:1001300090E00895FC01538D448D252F30E0842FED
:1001400090E0821B930B541710F0CF9608950197FF
:100150000895FC01918D828D981761F0828DDF01E9
:10016000A80FB11D5D968C91928D9F5F9F73928FAA
:1001700090E008958FEF9FEF0895FC01918D828D9F
:10018000981731F0828DE80FF11D858D90E008956C
:100190008FEF9FEF0895FC01918D228D892F90E0C4
:1001A000805C9F4F821B91098F73992708958CE77C
:1001B00091E00E94CB0021E0892B09F420E0822FFE
:1001C0000895FC01848DDF01A80FB11DA35ABF4F14
:1001D0002C91848D90E001968F739927848FA68946
:1001E000B7892C93A089B1898C91837080648C939A
:1001F000938D848D981306C00288F389E02D808149
:100200008F7D80830895EF92FF920F931F93CF937A
:10021000DF93EC0181E0888F9B8D8C8D981305C056
:10022000E889F989808185FD26C0F62E0B8D10E0C6
:100230000F5F1F4F0F731127E02E8C8DE8120CC03B
:100240000FB607FCFACFE889F989808185FFF5CFE1
:10025000CE010E94E100F1CF8B8DFE01E80FF11D70
:10026000E35AFF4FF0829FB7F8940B8FEA89FB891E
:10027000808180620AC09FB7F894EE89FF8960830D
:10028000E889F98980818370806480839FBF81E0E1
:1002900090E0DF91CF911F910F91FF90EF90089523
:1002A000CF93DF93EC01888D8823C9F0EA89FB891D
:1002B000808185FD05C0A889B9898C9186FD0FC014
:1002C0000FB607FCF5CF808185FFF2CFA889B989E9
:1002D0008C9185FFEDCFCE010E94E100E7CFDF9149
:1002E000CF91089580E090E0892B41F080E090E08C
:1002F000892B21F00E940000811109C080E090E06C
:10030000892B51F00E94D700811104C008950E94EA
:100310000000F4CF0C94000008950F931F93CF9327
:10032000DF9320913B012F5F322F377030933B01D9
:1003300020FF02C020E801C020E031FD20643470BD
:1003400009F02062205FFC01EC01239600E011E03F
:100350006485662331F070E0C8010E9495096F5FE3
:1003600001C060E06187322F369F030E30E0311DFF
:100370001124311102C0168202C031503683662327
:1003800011F0615061873196CE17DF0709F7DF91D1
:10039000CF911F910F910895519A08950F931F9334
:1003A000CF93DF93CDB7DEB762970FB6F894DEBF79
:1003B0000FBECDBF8C01F901DC011C968C917A83B4
:1003C00069835C834B835E834D8390819D8791819C
:1003D0009E8792819F87813029F4CE0101960E94E9
:1003E0008D0106C01C861B861A86198618861F82F8
:1003F00083E0888B1A8A198AD801ED91FC910484D4
:10040000F585E02DBE016F5F7F4FC80109956296AB
:100410000FB6F894DEBF0FBECDBFDF91CF911F9115
:100420000F9108950F931F93CF93DF93CDB7DEB74E
:1004300062970FB6F894DEBF0FBECDBF8C01F901F5
:10044000DC011C968C917A8369835C834B835E8389
:100450004D8390819D8791819E8792819F87813076
:1004600029F4CE0101960E948D0106C01C861B86D0
:100470001A86198618861F82188A1A8A198AD8013C
:10048000ED91FC910484F585E02DBE016F5F7F4FF7
:10049000C801099562960FB6F894DEBF0FBECDBFB6
:1004A000DF91CF911F910F91089580E090E0089522
:1004B000FC01858596850895CF93DF9300D000D009
:1004C00000D0CDB7DEB7AB011C821D821E82DC01DD
:1004D000ED91FC910190F081E02D19821A821B822E
:1004E0009E012F5F3F4FBE016C5F7F4F099526969F
:1004F0000FB6F894DEBF0FBECDBFDF91CF91089548
:100500000E94090A1F920F920FB60F9211240BB688
:100510000F922F933F934F935F936F937F938F939C
:100520009F93AF93BF93EF93FF938CE791E00E946B
:10053000E100FF91EF91BF91AF919F918F917F91DA
:100540006F915F914F913F912F910F900BBE0F9044
:100550000FBE0F901F9018951F920F920FB60F921B
:1005600011240BB60F922F938F939F93EF93FF93CA
:10057000E0918C01F0918D018081E0919201F091E8
:10058000930182FD12C09081809195018F5F8F73DE
:1005900020919601821751F0E0919501F0E0E45826
:1005A000FE4F958F8093950101C08081FF91EF915F
:1005B0009F918F912F910F900BBE0F900FBE0F90B8
:1005C0001F9018953FB7F894809141019091420196
:1005D000A0914301B091440126B5A89B05C02F3FCF
:1005E00019F00196A11DB11D3FBFBA2FA92F982F59
:1005F0008827820F911DA11DB11DBC01CD0142E0D4
:10060000660F771F881F991F4A95D1F708954F925B
:100610005F926F927F928F92AF92BF92CF92DF9252
:10062000EF920F931F93CF93DF933C01EB010E9456
:10063000E202F30127853089621B730B6A30710572
:10064000B0F3F894E881F9817BB172606BB16D7F92
:100650006BB9CA848F812C2D281B822F2F83BF84D6
:100660004A805B801D850C85DE841F5F0F5FD394FD
:100670009E813885A984EB844181D20120E0C32F7B
:10068000522F322F3181442788943111380F08F4CA
:100690003FEF8195889410FD430F4795889411FD95
:1006A000430F4795889412FD430F4795889413FD97
:1006B000430F4795889414FD430F4795889415FD83
:1006C000430F4795889416FD430F4795889417FD6F
:1006D000430F47958894232F1111242F8C0D422FFF
:1006E000002C7BB900C047FF6BB93081222788946A
:1006F00000C000C0002C6BB93111390F00C0002CB4
:100700007BB900C046FF6BB908F43FEF9195889420
:1007100000C000C0002C6BB900FD230F00C0002CEE
:100720007BB900C045FF6BB92795889401FD230F65
:1007300000C000C0002C6BB92795889400C0002C25
:100740007BB900C044FF6BB902FD230F2795889445
:1007500000C000C0002C6BB903FD230F00C0002CAB
:100760007BB900C043FF6BB92795889404FD230F24
:1007700000C000C0002C6BB92795889400C0002CE5
:100780007BB900C042FF6BB905FD230F2795889404
:1007900000C000C0002C6BB906FD230F00C0002C68
:1007A0007BB900C041FF6BB92795889407FD230FE3
:1007B00000C000C0002C6BB92795889400C0002CA5
:1007C0007BB900C040FF6BB9432F0111422F9A0D36
:1007D00000C000C0002C6BB900C000C0002C7BB969
:1007E00000C047FF6BB932812227889400C000C047
:1007F000002C6BB931113C0F00C0002C7BB900C03C
:1008000046FF6BB908F43FEFEB0DF11D00C000C0CF
:10081000002C6BB9D0FC230F00C0002C7BB900C0AA
:1008200045FF6BB927958894D1FC230F00C000C009
:10083000002C6BB92795889400C0002C7BB900C0B0
:1008400044FF6BB9D2FC230F2795889400C000C0E9
:10085000002C6BB9D3FC230F00C0002C7BB900C067
:1008600043FF6BB927958894D4FC230F00C000C0C8
:10087000002C6BB92795889400C0002C7BB900C070
:1008800042FF6BB9D5FC230F2795889400C000C0A8
:10089000002C6BB9D6FC230F00C0002C7BB900C024
:1008A00041FF6BB927958894D7FC230F00C000C087
:1008B000002C6BB92795889400C0002C7BB900C030
:1008C00040FF6BB9432FD110422FC19500C000C02B
:1008D000002C6BB9CE0D00C000C07BB900C047FF33
:1008E0006BB931812227889400C000C0002C6BB9FD
:1008F0003111380F00C0002C7BB900C046FF6BB926
:1009000008F43FEF8195889400C000C0002C6BB9BB
:1009100010FD230F00C0002C7BB900C045FF6BB950
:100920002795889411FD230F00C000C0002C6BB9DF
:100930002795889400C0002C7BB900C044FF6BB998
:1009400012FD230F2795889400C000C0002C6BB9BE
:1009500013FD230F00C0002C7BB900C043FF6BB90F
:100960002795889414FD230F00C000C0002C6BB99C
:100970002795889400C0002C7BB900C042FF6BB95A
:1009800015FD230F2795889400C000C0002C6BB97B
:1009900016FD230F00C0002C7BB900C041FF6BB9CE
:1009A0002795889417FD230F00C000C0002C6BB959
:1009B0002795889400C0002C7BB900C040FF6BB91C
:1009C000432F1111422F8C0D00C000C0002C6BB9B9
:1009D000119709F086CE20EE31E0D2010E94CB09BA
:1009E000DC01CB01F4E0B695A79597958795FA952C
:1009F000D1F720E030E0B901EAE94E9E040C611D18
:100A00005E9E600D711D1124650D711D860F971F6F
:100A1000A11DB11D893E43E09407A105B10508F46D
:100A200034C0885E9340A109B10942E0B695A7950C
:100A3000979587954A95D1F747E0849F080E211D29
:100A4000949F200D311D1124290F311D60913A0111
:100A500070E0860F971F820F931F40913D015091C8
:100A60003E0160913F0170914001292F3327420FD1
:100A7000531F611D711D40933D0150933E016093D2
:100A80003F017093400180933A0178940E94E20202
:100A9000F301708B6787DF91CF911F910F91EF90DA
:100AA000DF90CF90BF90AF908F907F906F905F90CE
:100AB0004F9008952FB7F89460913D0170913E01D9
:100AC00080913F01909140012FBF08951F920F9296
:100AD0000FB60F9211242F933F938F939F93AF9351
:100AE000BF9380913D0190913E01A0913F01B09153
:100AF000400130913C0123E0230F2D3720F4019673
:100B0000A11DB11D05C026E8230F0296A11DB11D30
:100B100020933C0180933D0190933E01A0933F01BF
:100B2000B09340018091410190914201A091430115
:100B3000B09144010196A11DB11D80934101909394
:100B40004201A0934301B0934401BF91AF919F91A3
:100B50008F913F912F910F900FBE0F901F9018957E
:100B6000CF92DF92EF92FF920F931F93CF93DF9379
:100B70006C017A018B01C0E0D0E0CE15DF0581F079
:100B8000D8016D918D01D601ED91FC910190F0811C
:100B9000E02DC6010995892B11F02196EECF7E013B
:100BA000C701DF91CF911F910F91FF90EF90DF90E0
:100BB000CF9008953F924F925F926F927F928F9263
:100BC0009F92AF92BF92CF92DF92EF92FF920F93DC
:100BD0001F93CF93DF9300D01F92CDB7DEB7F82ECF
:100BE00080911C0290911D02A0911E02B0911F02E3
:100BF000892B8A2B8B2BE9F00E94E20200912C02B8
:100C000010912D0220912E0230912F02DC01CB0198
:100C1000801B910BA20BB30B00911C0210911D02C3
:100C200020911E0230911F0280179107A207B3077F
:100C3000B8F20E94E20260932C0270932D0280931E
:100C40002E0290932F02E0912402F091250230971A
:100C500059F040912002509121026091220270913E
:100C600023028F2D0995F82E00917A0110917B01B6
:100C70004F2C512C612C712C0115110509F45FC00A
:100C8000D8011C96EC901C9780911A0290911B023F
:100C90008436910510F41C961C92D801ED91FC91BC
:100CA000A280B38019821A821B82F11014C0F8014D
:100CB00045855685628173819E012F5F3F4FC80134
:100CC000F5010995D8011C96EC921C9714960D918C
:100CD0001C911597D1CFF8013696CE0101966C0183
:100CE000480199E0890E911C2191222309F132805B
:100CF0003320F1F0822F90E0A0E0B0E09C01AD0144
:100D00002F5F3F4F4F4F5F4FC301B2010E948509D4
:100D10009B01AC01832D90E0A0E0B0E0BC01CD01CF
:100D20006F5F7F4F8F4F9F4F0E948509D6018C9335
:100D3000BFEFCB1ADB0AE815F905B1F6B8CF809101
:100D40002A0290912B028C010F5F1F4F10932B02F0
:100D500000932A0249979CF10E945A054B015C01BD
:100D600088EE93E0089FB001099F700D189F700DE9
:100D70001124072E000C880B990BC0902602D090EE
:100D80002702E0902802F0902902A50194012C1975
:100D90003D094E095F090E94A90930931B02209367
:100DA0001A0210922B0210922A020E945A05609396
:100DB00026027093270280932802909329020F90B5
:100DC0000F900F90DF91CF911F910F91FF90EF90B7
:100DD000DF90CF90BF90AF909F908F907F906F905B
:100DE0005F904F903F900895009769F0FC0101904B
:100DF0000020E9F73197AF01481B590BBC018CE784
:100E000091E00C94B00580E090E008958F929F925D
:100E1000AF92BF920F931F93CF93DF93CDB7DEB7FF
:100E2000A1970FB6F894DEBF0FBECDBF19A2423016
:100E300008F44AE08E010F5D1F4F842E912CA12CE7
:100E4000B12CA50194010E94A909E62FB901CA019C
:100E500001501109EA3014F4E05D01C0E95CD801E9
:100E6000EC93232B242B252B61F7C8010E94F40659
:100E7000A1960FB6F894DEBF0FBECDBFDF91CF9124
:100E80001F910F91BF90AF909F908F900895CF9238
:100E9000DF92EF92FF92CF93DF936B017C016DE2C3
:100EA0008CE791E00E940301EC0166277727CB01D4
:100EB0006C197D098E099F094AE00E9406078C0F74
:100EC0009D1FDF91CF91FF90EF90DF90CF9008951D
:100ED000CF93DF93CDB7DEB729970FB6F894DEBF77
:100EE0000FBECDBF789484B5826084BD84B5816027
:100EF00084BD85B5826085BD85B5816085BD8091E5
:100F00006E00816080936E0010928100809181005C
:100F10008260809381008091810081608093810054
:100F2000809180008160809380008091B100846016
:100F30008093B1008091B00081608093B000809177
:100F400091008260809391008091910081608093F4
:100F500091008091900081608093900080917A0050
:100F6000846080937A0080917A00826080937A0016
:100F700080917A00816080937A0080917A00806805
:100F800080937A001092C100E0918C01F0918D0164
:100F900082E08083E0918C01F0918D011082E091DC
:100FA0008801F09189011082E0918A01F0918B0112
:100FB00080E1808310929401E0919001F091910181
:100FC00086E08083E0918E01F0918F0180818061C5
:100FD0008083E0918E01F0918F0180818860808311
:100FE000E0918E01F0918F01808180688083E09193
:100FF0008E01F0918F0180818F7D808380915801D7
:10100000811145C010924A01109249018FEF8093DF
:101010004D0180934E0180934F0180935001809346
:1010200051018093520181E0809353011092550148
:101030001092540110924C0110924B0180917A0150
:1010400090917B01892B31F487E491E090937B01AF
:1010500080937A01E0914501F0914601309721F0AB
:1010600087E491E09583848387E491E0909346013F
:1010700080934501109257011092560184E191E04E
:10108000909348018093470181E080935801519AE1
:1010900082E691E090934A018093490188E090E0D4
:1010A000909355018093540180911C0290911D02F0
:1010B000A0911E02B0911F02843C29E09207A10575
:1010C000B10520F484EC99E0A0E0B0E080931C022C
:1010D00090931D02A0931E02B0931F020E945A0516
:1010E00002E611E0812C912C54013AE039872984E1
:1010F00022946FE0262244E0249EC0011124DC01EA
:10110000A457BF4F1D01C12CD12C76013985232F47
:1011100030E040E050E02D833E834F835887F1015B
:1011200085919591A591B491CC2019F1AD016627D7
:101130007727242F31E03C0D442329F0439F040EF0
:1011400040E0411D242F492F5A2F6B2F7727E42F82
:10115000442329F0439F040E40E0411DE42F8823DF
:1011600031F0482F439F040E40E0411D842F11248D
:1011700003C080E0E0E020E0D8012C931196EC93CE
:10118000119712968C934AE0C501B4010E9406079C
:1011900084E391E00E94F4064AE06D817E818F81B4
:1011A00098850E94060784E391E00E94F4064AE0D5
:1011B000C701B6010E94060784E391E00E94F4068D
:1011C0006091600170916101072E000C880B990BF2
:1011D00097FF03C00E94470703C04AE00E9406072A
:1011E00086E391E00E94F406809119020E94DA05DC
:1011F0000E945A0569837A838B839C830E94E20252
:101200002B013C010E94E202DC01CB01841995090B
:10121000A609B709883E9340A105B10598F38091CE
:1012200019020E94DA050E945A05DC01CB012981CE
:101230003A814B815C81821B930BA40BB50B0A97FF
:10124000A105B105D8F24FEFC41AD40AE40AF40A92
:101250005FEFC516D104E104F10409F060CF898580
:10126000815E89870D5F1F4F9FEF891A990AA90A2E
:10127000B90A823049F4A1E0B0E0B0936101A093D3
:1012800060010E9472012ACF809119020E94DA0542
:101290002ECFECE7F1E01382128288EE93E0A0E01B
:1012A000B0E084839583A683B78386E291E091833F
:1012B00080838DEC90E0958784878CEC90E0978715
:1012C000868788EC90E0918B808B89EC90E0938B03
:1012D000828B8AEC90E0958B848B8EEC90E0978BE0
:1012E000868B118E128E138E148EE9E1F2E08FEF51
:1012F000808312821182148613868FEF9FEFDC01A8
:1013000087839087A187B2870895DB018F939F938E
:101310000E94D209BF91AF91A29F800D911DA39F02
:10132000900DB29F900D1124089597FB072E16F48F
:10133000009407D077FD09D00E94DD0907FC05D095
:101340003EF4909581959F4F0895709561957F4FDC
:101350000895A1E21A2EAA1BBB1BFD010DC0AA1FF6
:10136000BB1FEE1FFF1FA217B307E407F50720F00E
:10137000A21BB30BE40BF50B661F771F881F991F89
:101380001A9469F760957095809590959B01AC01D2
:10139000BD01CF0108950E94FA09B7FF0895821B8D
:1013A000930B08950E94FA09A59F900DB49F900D8C
:1013B000A49F800D911D11240895AA1BBB1B51E110
:1013C00007C0AA1FBB1FA617B70710F0A61BB70BB5
:1013D000881F991F5A95A9F780959095BC01CD015A
:1013E0000895EE0FFF1F0024001C0BBE0790F6911E
:1013F000E02D0994A29FB001B39FC001A39F700D7F
:10140000811D1124911DB29F700D811D1124911D0C
:10141000089581E090E0F8940C940E0AF894FFCFC0
:10142000000000008002800280025C025802550227
:10143000000000001202CE01CC015C0258029300B1
:101440000703000000000301B0059A005001CB0023
:0A145000A900BD002C000D0A0000E9
:00000001FF
