:100000000C94B1000C94D9000C94D9000C94D90034
:100010000C94D9000C94D9000C94D9000C94D900FC
:100020000C94D9000C94D9000C943F0C0C9411083A
:100030000C94D9000C94D9000C94D9000C94D900DC
:100040000C94D9000C94D9000C94D9000C94D900CC
:100050000C94D9000C94D9000C94D9000C9472061D
:100060000C94D9000C94EC060C94C6060C94D900A0
:100070000C94D9000C94D9000C94D9000C94D9009C
:100080000C94D9000C94D9000C94D9000C94D9008C
:100090000C94D9000C94D9000C94D9000C94D9007C
:1000A0000C94D9000C94D9000C94D90000000000E5
:1000B00000008000000000000000800000008B00B5
:1000C0000000800000008B0000008B0000008B000F
:1000D0000000FF0000A5FF00FFFFFF0000A5FF00DC
:1000E0000000FF0000008B0000000000080B000271
:1000F00002020100090400000102020000052400C0
:100100001001052401010104240206052406000152
:100110000705810310004009040100020A000000E5
:1001200007050202400000070583024000000403A7
:10013000090412010002EF0201404F1B0692000168
:1001400001020301537061726B46756E005370615A
:10015000726B46756E2050726F204D6963726F002E
:10016000801011241FBECFEFDAE0DEBFCDBF23E049
:10017000A2E8B1E001C01D92AA32B207E1F711E096
:10018000A0E0B1E0EAECF2E202C005900D92A238E4
:10019000B107D9F710E0C1EBD0E004C02197FE0110
:1001A0000E945811C03BD107C9F70E94B10C0C94B2
:1001B00063110C940000FC01538D448D252F30E019
:1001C000842F90E0821B930B541710F0CF96089564
:1001D00001970895FC01918D828D981761F0828DB1
:1001E000DF01A80FB11D5D968C91928D9F5F9F736B
:1001F000928F90E008958FEF9FEF0895FC01918D0D
:10020000828D981731F0828DE80FF11D858D90E079
:1002100008958FEF9FEF0895FC01918D228D892F16
:1002200090E0805C9F4F821B91098F7399270895FE
:1002300080E090E0892B29F00E94BC0681110C948B
:1002400000000895CF93DF931F92CDB7DEB7698387
:10025000DC01ED91FC910280F381E02D41E050E062
:10026000BE016F5F7F4F09950F90DF91CF91089589
:1002700083E08093E9008091F200882319F08AE3FB
:100280008093E8000895FC018485958597FD0BC057
:100290009FB7F89482E08093E9008091F2009FBFBD
:1002A00090E0019608959FB7F89482E08093E9006A
:1002B0008091F2009FBF90E00895089580E090E063
:1002C00008950F931F93CF93DF93209183012F5FA6
:1002D000322F37703093830120FF02C020E801C025
:1002E00020E031FD2064347009F02062205FFC01C1
:1002F000EC01239600E011E06485662331F070E0A4
:10030000C8010E9429116F5F01C060E06187322F30
:10031000369F030E30E0311D1124311102C01682C8
:1003200002C031503683662311F0615061873196E7
:10033000CE17DF0709F7DF91CF911F910F91089535
:1003400080E991E00895259A08950F931F93CF9324
:10035000DF93CDB7DEB762970FB6F894DEBF0FBE5E
:10036000CDBF8C01F901DC011C968C917A836983E5
:100370005C834B835E834D8390819D8791819E87B3
:1003800092819F87813029F4CE0101960E946101FC
:1003900006C01C861B861A86198618861F8283E073
:1003A000888B1A8A198AD801ED91FC910484F5850D
:1003B000E02DBE016F5F7F4FC801099562960FB6B1
:1003C000F894DEBF0FBECDBFDF91CF911F910F918B
:1003D00008950F931F93CF93DF93CDB7DEB7629746
:1003E0000FB6F894DEBF0FBECDBF8C01F901DC0162
:1003F0001C968C917A8369835C834B835E834D83E7
:1004000090819D8791819E8792819F87813029F479
:10041000CE0101960E94610106C01C861B861A86C9
:10042000198618861F82188A1A8A198AD801ED91AE
:10043000FC910484F585E02DBE016F5F7F4FC801FC
:10044000099562960FB6F894DEBF0FBECDBFDF915F
:10045000CF911F910F91089580E090E00895FC01E5
:10046000858596850895CF93DF9300D000D000D086
:10047000CDB7DEB7AB011C821D821E82DC01ED917F
:10048000FC910190F081E02D19821A821B829E015D
:100490002F5F3F4FBE016C5F7F4F099526960FB6C9
:1004A000F894DEBF0FBECDBFDF91CF9108950E94BB
:1004B0001A0C90E008950F931F93CF93DF931F9230
:1004C000CDB7DEB78C01FC018485958597FF0EC002
:1004D000CE0101960E94EC0B019719F4898190E0FE
:1004E00002C08FEF9FEFF80195878487F80184851C
:1004F00095850F90DF91CF911F910F910895CF9324
:10050000DF931F92CDB7DEB7FC018485958597FDFB
:1005100005C02FEF3FEF358724870BC0CE01019632
:100520000E94EC0B019719F4898190E002C08FEFD3
:100530009FEF0F90DF91CF9108950E945E11FC0113
:10054000848DDF01A80FB11DA35ABF4F2C91848D5C
:1005500090E001968F739927848FA689B7892C9391
:10056000A089B1898C9182748C93938D848D98131A
:1005700006C00288F389E02D80818F7D80830895F5
:10058000EF92FF920F931F93CF93DF93EC0181E0E3
:10059000888F9B8D8C8D981305C0E889F98980819F
:1005A00085FD26C0F62E0B8D10E00F5F1F4F0F73D9
:1005B0001127E02E8C8DE8120CC00FB607FCFACF85
:1005C000E889F989808185FFF5CFCE010E949F02DD
:1005D000F1CF8B8DFE01E80FF11DE35AFF4FF08242
:1005E0009FB7F8940B8FEA89FB898081806209C0EC
:1005F0009FB7F894EE89FF896083E889F989808143
:10060000827480839FBF81E090E0DF91CF911F9142
:100610000F91FF90EF900895CF93DF93EC01888DB9
:100620008823C9F0EA89FB89808185FD05C0A889F6
:10063000B9898C9186FD0FC00FB607FCF5CF80817C
:1006400085FFF2CFA889B9898C9185FFEDCFCE01C6
:100650000E949F02E7CFDF91CF9108953FB7F894B2
:100660008091890190918A01A0918B01B0918C01B8
:1006700026B5A89B05C02F3F19F00196A11DB11DFD
:100680003FBFBA2FA92F982F8827820F911DA11D38
:10069000B11DBC01CD0142E0660F771F881F991F75
:1006A0004A95D1F708958F929F92AF92BF92CF92C1
:1006B000DF92EF92FF926B017C010E942E034B01AF
:1006C0005C01C114D104E104F104F1F00E942E0395
:1006D000DC01CB0188199909AA09BB09883E93401E
:1006E000A105B10570F321E0C21AD108E108F108B3
:1006F00088EE880E83E0981EA11CB11CC114D104A1
:10070000E104F10419F7DDCFFF90EF90DF90CF9077
:10071000BF90AF909F908F9008958F929F92AF92CD
:10072000BF92CF92DF92EF92FF920F931F93CF93DE
:10073000DF936C017B018A0180910B01882309F40E
:100740005CC08091CF01882309F457C08091CC010F
:1007500080FF05C08091E00082608093E000E801A6
:10076000B12C8AEFA82E93E0892E2AE3922E2097AF
:1007700011F4BB20D9F10E941A0C81110AC0AA946D
:10078000AA20D9F161E070E080E090E00E9453037C
:10079000EECF282F30E0C217D3070CF48C2F9FB771
:1007A000F8948092E9002091E80025FF1DC0282FD1
:1007B00030E0C21BD30BF701815020F041914093F0
:1007C000F100FACFE20EF31EBB2019F09092E80080
:1007D0000AC08091E80085FD07C09092E800BB2424
:1007E000B394209709F0B12C9FBFC1CF5D9884E6E8
:1007F0008093CD011016110644F081E090E0F601DF
:100800009383828380E090E001C0C801DF91CF91A3
:100810001F910F91FF90EF90DF90CF90BF90AF901E
:100820009F908F9008954F925F926F927F928F92D8
:10083000AF92BF92CF92DF92EF920F931F93CF931D
:10084000DF933C01EB010E942E03F30127853089E1
:10085000621B730B6A307105B0F3F894E881F9817B
:1008600075B1706265B16F7D65B9CA848F812C2DB9
:10087000281B822F2F83BF844A805B801D850C85B7
:10088000DE841F5F0F5FD3949E813885A984EB843B
:100890004181D20120E0C32F522F322F31814427D2
:1008A00088943111380F08F43FEF8195889410FD3A
:1008B000430F4795889411FD430F4795889412FD87
:1008C000430F4795889413FD430F4795889414FD73
:1008D000430F4795889415FD430F4795889416FD5F
:1008E000430F4795889417FD430F47958894232F0E
:1008F0001111242F8C0D422F002C75B900C047FF19
:1009000065B930812227889400C000C0002C65B9E9
:100910003111390F00C0002C75B900C046FF65B910
:1009200008F43FEF9195889400C000C0002C65B991
:1009300000FD230F00C0002C75B900C045FF65B94C
:100940002795889401FD230F00C000C0002C65B9D5
:100950002795889400C0002C75B900C044FF65B984
:1009600002FD230F2795889400C000C0002C65B9B4
:1009700003FD230F00C0002C75B900C043FF65B90B
:100980002795889404FD230F00C000C0002C65B992
:100990002795889400C0002C75B900C042FF65B946
:1009A00005FD230F2795889400C000C0002C65B971
:1009B00006FD230F00C0002C75B900C041FF65B9CA
:1009C0002795889407FD230F00C000C0002C65B94F
:1009D0002795889400C0002C75B900C040FF65B908
:1009E000432F0111422F9A0D00C000C0002C65B9A1
:1009F00000C000C0002C75B900C047FF65B9328146
:100A00002227889400C000C0002C65B931113C0F2A
:100A100000C0002C75B900C046FF65B908F43FEF6F
:100A2000EB0DF11D00C000C0002C65B9D0FC230FF8
:100A300000C0002C75B900C045FF65B927958894A2
:100A4000D1FC230F00C000C0002C65B92795889405
:100A500000C0002C75B900C044FF65B9D2FC230F5B
:100A60002795889400C000C0002C65B9D3FC230FE3
:100A700000C0002C75B900C043FF65B92795889464
:100A8000D4FC230F00C000C0002C65B927958894C2
:100A900000C0002C75B900C042FF65B9D5FC230F1A
:100AA0002795889400C000C0002C65B9D6FC230FA0
:100AB00000C0002C75B900C041FF65B92795889426
:100AC000D7FC230F00C000C0002C65B9279588947F
:100AD00000C0002C75B900C040FF65B9432FD1108C
:100AE000422FC19500C000C0002C65B9CE0D00C0DA
:100AF00000C075B900C047FF65B9318122278894CD
:100B000000C000C0002C65B93111380F00C0002CA6
:100B100075B900C046FF65B908F43FEF8195889428
:100B200000C000C0002C65B910FD230F00C0002CD0
:100B300075B900C045FF65B92795889411FD230F4D
:100B400000C000C0002C65B92795889400C0002C17
:100B500075B900C044FF65B912FD230F279588942D
:100B600000C000C0002C65B913FD230F00C0002C8D
:100B700075B900C043FF65B92795889414FD230F0C
:100B800000C000C0002C65B92795889400C0002CD7
:100B900075B900C042FF65B915FD230F27958894EC
:100BA00000C000C0002C65B916FD230F00C0002C4A
:100BB00075B900C041FF65B92795889417FD230FCB
:100BC00000C000C0002C65B92795889400C0002C97
:100BD00075B900C040FF65B9432F1111422F8C0D2C
:100BE00000C000C0002C65B9119709F086CE20EE38
:100BF00031E0D2010E943D11DC01CB01F4E0B69559
:100C0000A79597958795FA95D1F720E030E0B9013F
:100C1000EAE94E9E040C611D5E9E600D711D11245B
:100C2000650D711D860F971FA11DB11D893E43E003
:100C30009407A105B10508F434C0885E9340A1096A
:100C4000B10942E0B695A795979587954A95D1F752
:100C500047E0849F080E211D949F200D311D112413
:100C6000290F311D6091820170E0860F971F820F5E
:100C7000931F409185015091860160918701709189
:100C80008801292F3327420F531F611D711D409387
:100C9000850150938601609387017093880180934A
:100CA000820178940E942E03F301708B6787DF9195
:100CB000CF911F910F91EF90DF90CF90BF90AF90A9
:100CC0008F907F906F905F904F9008952FB7F8941A
:100CD00060918501709186018091870190918801D2
:100CE0002FBF08951F920F920FB60F9211242F93CA
:100CF0003F938F939F93AF93BF9380918501909182
:100D00008601A0918701B09188013091840123E090
:100D1000230F2D3720F40196A11DB11D05C026E833
:100D2000230F0296A11DB11D20938401809385019C
:100D300090938601A0938701B093880180918901E7
:100D400090918A01A0918B01B0918C010196A11D17
:100D5000B11D8093890190938A01A0938B01B09378
:100D60008C01BF91AF919F918F913F912F910F90E7
:100D70000FBE0F901F90189582ED91E00E940C011C
:100D800021E0892B09F420E0822F08951F920F9211
:100D90000FB60F9211242F933F934F935F936F934E
:100DA0007F938F939F93AF93BF93EF93FF9382EDC6
:100DB00091E00E949F02FF91EF91BF91AF919F91AF
:100DC0008F917F916F915F914F913F912F910F90F4
:100DD0000FBE0F901F9018951F920F920FB60F9293
:100DE00011242F938F939F93EF93FF93E091E20150
:100DF000F091E3018081E091E801F091E90182FD49
:100E000012C090818091EB018F5F8F732091EC0174
:100E1000821751F0E091EB01F0E0EE52FE4F958F1A
:100E20008093EB0101C08081FF91EF919F918F91A1
:100E30002F910F900FBE0F901F9018954091C901F0
:100E40005091CA012091C7013091C8014217530740
:100E5000B4F49091E8009570E1F39091E80092FD70
:100E600019C08093F1008091C9019091CA01019647
:100E70008F739927892B19F48EEF8093E800809166
:100E8000C9019091CA0101969093CA018093C9014A
:100E900081E0089580E00895DF92EF92FF920F9332
:100EA0001F93CF93DF93D82EF92EE42E062F10E058
:100EB000C8010196880F0E941E0783E00E941E074A
:100EC000CD2DDF2D0C0F1D1FC017D10789F0E7FEB8
:100ED00003C0FE01849101C088810E941E07F82E84
:100EE00080E00E941E078F2121968111EDCF01C065
:100EF00081E0DF91CF911F910F91FF90EF90DF90F4
:100F00000895DF92EF92FF920F931F93CF93DF9399
:100F1000D82E8A017B01E40EF51EEB01CE15DF050C
:100F200071F0D7FE03C0FE01849101C088810E9448
:100F30001E0721968111F2CF8FEF9FEF01C0C801EC
:100F4000DF91CF911F910F91FF90EF90DF90089567
:100F5000615030F02091F100FC0120830196F8CF20
:100F6000289884E68093CE010895CF92DF92EF9285
:100F7000FF920F931F93CF93DF936C017A018B0144
:100F8000C0E0D0E0CE15DF0581F0D8016D918D0174
:100F9000D601ED91FC910190F081E02DC6010995FB
:100FA000892B11F02196EECF7E01C701DF91CF9101
:100FB0001F910F91FF90EF90DF90CF9008950F93C6
:100FC0001F93CF93DF931F92CDB7DEB782E0898363
:100FD00042E450E06CEE70E080E80E9481070E94DD
:100FE0002B0CDC0112960D911C9113970115110524
:100FF00089F0D801ED91FC910280F381E02DBE01D2
:101000006F5F7F4FC801099597FD04C0F801008507
:101010001185ECCF89810F90DF91CF911F910F91B6
:1010200008951F920F920FB60F921124CF92DF9264
:10103000EF92FF920F931F932F933F934F935F93E2
:101040006F937F938F939F93AF93BF93EF93FF9390
:10105000CF93DF93CDB7DEB76C97DEBFCDBF1092D5
:10106000E9008091E80083FFFBC168E0CE0145966E
:101070000E94A80782EF8093E8008D8987FF05C052
:101080009091E80090FFFCCF03C09EEF9093E800A2
:10109000982F907609F0C6C09E894F89588D2F8968
:1010A000F88C91110CC0803829F48091C60180938E
:1010B000F10002C01092F1001092F10045C1913090
:1010C00051F4811141C14130510509F03DC1809178
:1010D000C6018D7F0BC0933061F4811135C1413061
:1010E000510509F031C18091C60182608093C6012B
:1010F0002BC1953049F48091E80080FFFCCF822F0E
:1011000080688093E30020C1963009F05EC00B8DAB
:101110001C8D22E01092E9001092CA011092C901C0
:10112000F21232C01092C8011092C7010E94DF076C
:1011300099E0BE016F5F7F4FDB01E92F1D92EA95B9
:10114000E9F79983FA8291E09E8390EA98879AEF73
:1011500099872091C9013091CA01275F3F4F3C8395
:101160002B838D831092E9001092CA011092C9015D
:101170001093C8010093C70149E050E080E00E944D
:1011800081070E94DF07E0C01093C8010093C701E8
:101190000E942B0CDC0112960D911C9113970115E6
:1011A000110509F4BBC0D801ED91FC910480F581D3
:1011B000E02DBE016B5E7F4FC8010995009709F0D5
:1011C000C7C0F80100851185EACF973009F445C101
:1011D000983021F481E08093F100B6C0993009F095
:1011E000B3C0837009F039C1EFE2F1E081E031E092
:1011F00096E32081211109C08EE78093EA001092C6
:10120000EA008F898093CF019FC08093E9003093DB
:10121000EB0021912093EC009093ED008F5F8730DD
:1012200041F7EACF8B8D9C8D1092E9001092CA0194
:101230001092C9019093C8018093C701898D8111D3
:1012400053C08E899D89913A49F4813209F005C1D4
:1012500047E050E064E071E080E0BBC0913209F00B
:10126000FCC0833269F48F89988DA0E0B0E0809350
:10127000000190930101A0930201B093030164C0A7
:10128000803269F48091E80082FFFCCF67E084E05F
:1012900091E00E94A8078BEF8093E80055C082324E
:1012A00009F052C08F8980930B01EEEFFFE7859123
:1012B00094918B3F9C4D19F0E0E0F8E002C0EEEF16
:1012C000FAE08091040190910501A0910601B0918E
:1012D0000701803B9440A105B10509F09EC08091B3
:1012E0000B0180FF79C099C00E942B0CFC01028188
:1012F00013810115110509F4B0C0D801ED91FC91DD
:101300000190F081E02DBE016B5E7F4FC801099511
:1013100081111AC0F80100851185EBCFF1E0FF16AD
:1013200009F44EC0F3E0FF1298C08F89882309F4B6
:101330004AC0823089F440E862E18DE491E00E9485
:101340004C07882309F489C08EEF8093E80088C099
:1013500018161906CCF381C0813029F440E868E002
:1013600084E491E0ECCF833009F077C00E942B0C2D
:10137000DC011296ED90FC9013978E010F5F1F4FCA
:101380006801E114F10479F0D701ED91FC91068038
:10139000F781E02DB801C7010995080F111DF7016C
:1013A000E084F184EECFD8011C92F6010190002078
:1013B000E9F73197BF016C197D0940E0C601BFCF45
:1013C00062E371E002C06EE271E0FB01449150E023
:1013D00080E80E948107B8CFEE3F2AE0F20751F083
:1013E000808191818737A7E79A0721F09093FF0AC0
:1013F0008093FE0A87E797E791838083809160005E
:101400008093CB019BE088E10FB6F894A895809378
:1014100060000FBE9093600097CF808191818737E5
:10142000974709F091CFA8958091600088618093DB
:1014300060008091CB0180936000EE3FBAE0FB0733
:1014400039F08091FE0A9091FF0A918380837CCFCE
:101450001092FF0A1092FE0A77CF81E28093EB0090
:101460006C960FB6F894DEBF0FBECDBFDF91CF9163
:10147000FF91EF91BF91AF919F918F917F916F916C
:101480005F914F913F912F911F910F91FF90EF909E
:10149000DF90CF900F900FBE0F901F9018956115A1
:1014A000710579F0FB0101900020E9F73197AF0158
:1014B000461B570BDC01ED91FC910280F381E02D7E
:1014C000099480E090E008958F929F92AF92BF922E
:1014D000EF92FF920F931F93CF93DF93CDB7DEB7B9
:1014E000A1970FB6F894DEBF0FBECDBF7C01FA0105
:1014F000CB0119A2223008F42AE08E010F5D1F4FA4
:10150000822E912CA12CB12CBF01A50194010E9427
:10151000ED10F901CA01015011096A3014F4605D3F
:1015200001C0695CD8016C93232B242B252B61F718
:10153000B801C7010E944F0AA1960FB6F894DEBF0A
:101540000FBECDBFDF91CF911F910F91FF90EF9014
:10155000BF90AF909F908F9008950C944F0A3F9248
:101560004F925F926F927F928F929F92AF92BF92B3
:10157000CF92DF92EF92FF920F931F93CF93DF935F
:1015800000D01F92CDB7DEB7F82E80910A0390915C
:101590000B03A0910C03B0910D03892B8A2B8B2B8D
:1015A000E9F00E942E030091260310912703209159
:1015B000280330912903DC01CB01801B910BA20B86
:1015C000B30B00910A0310910B0320910C0330918F
:1015D0000D0380179107A207B307B8F20E942E03EC
:1015E0006093260370932703809328039093290325
:1015F000E0911203F0911303309759F040910E03DC
:1016000050910F0360911003709111038F2D099574
:10161000F82E0091D0011091D1014F2C512C612C4A
:10162000712C0115110509F45FC0D8011C96EC90CE
:101630001C9780910803909109038436910510F45A
:101640001C961C92D801ED91FC91A280B380198266
:101650001A821B82F11014C0F801458556856281FB
:1016600073819E012F5F3F4FC801F5010995D80195
:101670001C96EC921C9714960D911C911597D1CF46
:10168000F8013696CE0101966C01480199E0890E69
:10169000911C2191222309F132803320F1F0822F15
:1016A00090E0A0E0B0E09C01AD012F5F3F4F4F4FB5
:1016B0005F4FC301B2010E94DD109B01AC01832D7D
:1016C00090E0A0E0B0E0BC01CD016F5F7F4F8F4F95
:1016D0009F4F0E94DD10D6018C93BFEFCB1ADB0A1F
:1016E000E815F905B1F6B8CF809124039091250350
:1016F0008C010F5F1F4F109325030093240349971C
:101700009CF10E9466064B015C0188EE93E0089F05
:10171000B001099F700D189F700D1124072E000C49
:10172000880B990BC0902003D0902103E0902203F6
:10173000F0902303A50194012C193D094E095F097E
:101740000E94ED10309309032093080310922503A3
:10175000109224030E946606609320037093210375
:1017600080932203909323030F900F900F90DF91AB
:10177000CF911F910F91FF90EF90DF90CF90BF908E
:10178000AF909F908F907F906F905F904F903F9021
:101790000895CF92DF92EF92FF92CF93DF936B0188
:1017A0007C016DE282ED91E00E94C002EC014427D1
:1017B0005527BA014C195D096E097F092AE082EDAF
:1017C00091E00E94640A8C0F9D1FDF91CF91FF90E2
:1017D000EF90DF90CF9008952091CF01211103C0A9
:1017E0008FEF9FEF08955FB7F89422E02093E90010
:1017F0002091F20030E01216130614F421E030E0DC
:10180000422FFC0184E6415038F028988093CE01A5
:101810009091F1009193F7CF2115310521F080913E
:10182000F200882319F05FBFC90108958BE6809309
:10183000E800F9CF2FB7F89483E08093E900909106
:10184000E800892F807295FF04C09091F20080E437
:10185000891B2FBF08958091180381110DC082E06C
:101860008093140384E08093150310921703109261
:10187000160381E08093180384E193E008951F929A
:101880000F920FB60F9211248F939F938091E100D6
:101890009091E100937F9093E10083FF0FC010923D
:1018A000E90091E09093EB001092EC0092E39093AA
:1018B000ED001092CF0198E09093F00082FF20C0DD
:1018C00093E09093E9009091F200992319F09AE344
:1018D0009093E8009091CD01992339F09091CD013A
:1018E00091509093CD01992389F19091CE01992344
:1018F00039F09091CE0191509093CE01992341F10E
:1019000084FF10C08091E2008E7E81608093E200AF
:101910008091E1008F7E8093E1008091CC018E7EEA
:10192000806111C080FF16C08091E2008E7E8061D0
:101930008093E2008091E1008E7E8093E1008091AF
:10194000CC018E7E81608093CC0104C05D9ACDCFA6
:10195000289AD6CF9F918F910F900FBE0F901F9016
:101960001895CF93DF9300D000D000D0CDB7DEB76D
:10197000789484B5826084BD84B5816084BD85B56A
:10198000826085BD85B5816085BD80916E00816076
:1019900080936E001092810080918100826080931C
:1019A000810080918100816080938100809180001E
:1019B000816080938000809191008260809391008B
:1019C000809191008160809391008091900081606E
:1019D000809390008091C10084608093C1008091C9
:1019E000C10082608093C1008091C10081608093BA
:1019F000C1008091C30081608093C3008091C000CA
:101A000082608093C0008091C20081608093C20098
:101A100080917A00846080937A0080917A0082605D
:101A200080937A0080917A00816080937A0080911F
:101A30007A00806880937A001092CF011092C601DC
:101A40001092CC018091D70081608093D70080EA0A
:101A50008093D80089B5806189BD89B5826089BDD0
:101A600009B400FEFDCF61E070E080E090E00E94EC
:101A700053038091D8008F7C80618093D80080913F
:101A8000E000807F8093E0008091E1008E7E809373
:101A9000E1008DE08093E200559A209A10920303B2
:101AA0001092040310920503109206031092C102D3
:101AB0001092C2021092C3021092C4020E946606E3
:101AC0006B017C014B015C0128EB820E2BE0921E26
:101AD000A11CB11C0E9466066C157D058E059F0534
:101AE00028F086169706A806B906A0F78FE692E0BA
:101AF00090930203809301034BE150E05A834983A2
:101B000010910B016AE070E080E090E00E945303C6
:101B100011110EC089819A8101979A838983892B3B
:101B200039F064E670E080E090E00E945303E8CF73
:101B3000E0910103F09102038FEF9FEF9587848777
:101B40000E9466066093C1027093C2028093C30232
:101B50009093C40269E571E08091010390910203C2
:101B60000E94AD0A0E9466066B017C014B015C017C
:101B70009AE0890E911CA11CB11C0E9466066C158E
:101B80007D058E059F0528F086169706A806B906DE
:101B9000A0F791E09093D502E091E201F091E3018A
:101BA00082E08083E091E201F091E3011082E09114
:101BB000DE01F091DF011082E091E001F091E1019E
:101BC00080E180831092EA01E091E601F091E70163
:101BD00086E08083E091E401F091E50180818061FD
:101BE0008083E091E401F091E50180818860808349
:101BF000E091E401F091E501808180688083E091CB
:101C0000E401F091E50180818F7D80838091A001C6
:101C1000811144C010929201109291018FEF809334
:101C2000950180939601809397018093980180930A
:101C3000990180939A0190939B0110929D011092BB
:101C40009C0110929401109293018091D001909187
:101C5000D101892B31F48FE891E09093D1018093E9
:101C6000D001E0918D01F0918E01309721F08FE845
:101C700091E0958384838FE891E090938E01809327
:101C80008D0110929F0110929E0180E291E090934D
:101C9000900180938F0181E08093A001259A8AEAC8
:101CA00091E0909392018093910188E090E090936D
:101CB0009D0180939C0180910A0390910B03A09158
:101CC0000C03B0910D03843CE9E09E07A105B1052A
:101CD00020F484EC99E0A0E0B0E080930A039093B4
:101CE0000B03A0930C03B0930D030E946606672BB1
:101CF000682B692B41F40E946606623071058105EC
:101D0000910508F417C10E946606C090C201D090E8
:101D1000C301E090C401F090C5016C157D058E05EE
:101D20009F0540F46093C2017093C3018093C40186
:101D30009093C501C090C201D090C301E090C4014E
:101D4000F090C5019B01AC012C193D094E095F09BA
:101D500069017A013AEFC316D104E104F10408F4F1
:101D6000E9C06093C2017093C3018093C401909352
:101D7000C50184EF91E0A0E0B0E08093CD029093A4
:101D8000CE02A093CF02B093D0021092D102109253
:101D9000D2021092D3021092D4028091C502909187
:101DA000C602A091C702B091C8028093C902909365
:101DB000CA02A093CB02B093CC020E946606609345
:101DC000C5027093C6028093C7029093C8020E9416
:101DD00066066093C1027093C2028093C30290931F
:101DE000C4020E9466066B017C016BE671E0809183
:101DF0000103909102030E94AD0A2AE041E050E005
:101E000060E070E080910103909102030E94640AF7
:101E100062E771E080910103909102030E94AD0A94
:101E20002AE0B701A60180910103909102030E946C
:101E3000640A64E771E080910103909102030E94BB
:101E4000AD0A8091C5029091C602A091C702B091DF
:101E5000C802B701A601481B590B6A0B7B0B2AE08D
:101E600080910103909102030E94640A64E771E08B
:101E700080910103909102030E94AD0A4091C50236
:101E80005091C6026091C7027091C8028091C90248
:101E90009091CA02A091CB02B091CC02481B590B81
:101EA0006A0B7B0B2AE080910103909102030E9450
:101EB000640A66E771E080910103909102030E9439
:101EC000AD0A0E946606AB01BC012AE080910103C5
:101ED000909102030E94640AA0910103B091020351
:101EE000BA83A98368E771E0CD010E944F0A68E6D2
:101EF00071E089819A810E944F0A0E9466064B0117
:101F00005C016B017C01B2E0CB0ED11CE11CF11C29
:101F10000E946606681579058A059B0508F0E9C0E8
:101F20000E9466066093C5027093C6028093C70242
:101F30009093C8020E946606EAEAF1E0FE83ED8310
:101F4000812C912C54011AE0212E22946FE026223C
:101F5000F4E02F9EC00111249C0124553F4F19012C
:101F6000C12CD12C7601812F90E0A0E0B0E08983D4
:101F70009A83AB83BC83F10185919591A591B4912E
:101F8000CC2019F1AD0166277727242F31E03C0DD5
:101F9000442329F0439F040E40E0411D242F492F84
:101FA0005A2F6B2F7727E42F442329F0439F040EE9
:101FB00040E0411DE42F882331F0482F439F040E59
:101FC00040E0411D842F112403C080E0E0E020E0C8
:101FD000AD81BE812C931196EC93119712968C9340
:101FE0002AE0B501A40182ED91E00E94640A6FE746
:101FF00071E082ED91E00E94AD0A2AE049815A81A8
:102000006B817C8182ED91E00E94640A6FE771E050
:1020100082ED91E00E94AD0A2AE0B701A60182EDAF
:1020200091E00E94640A6FE771E082ED91E00E9406
:10203000AD0A4091A8015091A901052E000C660B34
:10204000770B77FF05C0CB01BA010E94C90B05C011
:102050002AE082ED91E00E94640A68E671E082ED78
:1020600091E00E944F0A809107030E94AF0A0E94EC
:1020700066062B013C0161E070E080E090E00E9488
:102080005303809107030E94AF0A0E946606DC0199
:10209000CB0184199509A609B7090A97A105B105CD
:1020A00050F3BFEFCB1ADB0AEB0AFB0AEFEFCE16B9
:1020B000D104E104F10409F05ECF115E2D813E816F
:1020C0002D5F3F4F3E832D833FEF831A930AA30A70
:1020D000B30A123049F441E050E05093A901409313
:1020E000A8010E94180101CE809107030E94AF0A47
:1020F0002BCFC616D706E806F90608F009CF10CF91
:10210000E2EDF1E01382128288EE93E0A0E0B0E00D
:1021100084839583A683B78329E331E031832083C9
:102120002DEC30E0358724872CEC30E0378726878C
:1021300028EC30E0318B208B29EC30E0338B228B84
:102140002AEC30E0358B248B2EEC30E0378B268B5D
:10215000118E128E138E148EEFE6F2E0138212822D
:1021600084839583A683B7838BE491E091838083F6
:102170008FEF9FEF95878487EFEBF2E0168217824F
:102180001086118612861386148615861686178683
:10219000108A118A128A138A148A158AE7E0F3E0FA
:1021A000808312821182148613868FEF9FEFDC01E9
:1021B00087839087A187B2870895DB018F939F93D0
:1021C0000E940F11BF91AF91A29F800D911DA39FFF
:1021D000900DB29F900D11240895A1E21A2EAA1B12
:1021E000BB1BFD010DC0AA1FBB1FEE1FFF1FA217C7
:1021F000B307E407F50720F0A21BB30BE40BF50BC4
:10220000661F771F881F991F1A9469F7609570954C
:10221000809590959B01AC01BD01CF0108950E946E
:102220001A11A59F900DB49F900DA49F800D911D34
:1022300011240895A29FB001B39FC001A39F700D08
:10224000811D1124911DB29F700D811D1124911DBE
:10225000089597FB072E16F4009407D077FD09D058
:102260000E94441107FC05D03EF4909581959F4F44
:102270000895709561957F4F08950E941A11B7FFD8
:102280000895821B930B0895AA1BBB1B51E107C045
:10229000AA1FBB1FA617B70710F0A61BB70B881FF6
:1022A000991F5A95A9F780959095BC01CD01089585
:1022B000EE0FFF1F0590F491E02D099481E090E06E
:0A22C000F8940C946311F894FFCF1A
:1022CA00FFFFFFFF00E10000000000000000000027
:1022DA009D029D029D0233022F022C020000000083
:1022EA00E901A501A30133022F02A001130400C1D1
:1022FA00808100000000000000C002B507DB000C6E
:10230A00030C01EA00FE000000000022018D0357C1
:10231A0002380143017F025B02564D4450565F3139
:10232A007C315F564D4450560D0A00564D44504577
:10233A005F003A323A007C005F564D445045002C0B
:02234A00000091
:00000001FF
