:100000000C94DD000C9405010C9405010C94050181
:100010000C9405010C9405010C9405010C94050148
:100020000C9405010C9405010C9472050C94E405E4
:100030000C9405010C9405010C9405010C94050128
:100040000C9405010C9405010C9405010C94050118
:100050000C9405010C9405010C9405010C942208E4
:100060000C9405010C9405010C9405010C940501F8
:100070000C9405010C9405010C9405010C940501E8
:100080000C9405010C9405010C9405010C940501D8
:100090000C9405010C9405010C9405010C940501C8
:1000A0000C9405010C9405010C94050131013401F7
:1000B000230127012B0155015501550138013C0150
:1000C000400146014A015501500100000000240092
:1000D00027002A002D003000080B00020202010058
:1000E000090400000102020000052400100105249B
:1000F000010101042402060524060001070581030D
:1001000010004009040100020A0000000705020275
:1001100040000007058302400000040309041201A7
:100120000002EF0201404F1B069200010102030191
:10013000537061726B46756E00537061726B4675D9
:100140006E2050726F204D6963726F0000000002D4
:1001500000090F0000030401000C00000000000073
:100160000000000000000000000004080201104030
:100170008040102040804080080204018040201010
:1001800002011080102040402000000000250028BF
:10019000002B002E003100040404040403040502B3
:1001A0000202020403020202020606060606060412
:1001B000040202020404A1082F0A11241FBECFEF7B
:1001C000DAE0DEBFCDBF11E0A0E0B1E0E4E3F7E1AB
:1001D00002C005900D92AE32B107D9F721E0AEE230
:1001E000B1E001C01D92A63BB207E1F710E0CCEDF3
:1001F000D0E004C02197FE010E94610ACB3DD107E7
:10020000C9F70E9419090C948D0B0C94000090E022
:10021000FC01E45BFE4F4491FC01E659FE4F249142
:10022000FC01E956FE4F8491882309F44DC0442314
:10023000E1F150E0FA013197EF30F105B0F5EA5AFB
:10024000FF4F0C94610A909180009F7707C09091B6
:1002500080009F7D03C090918000977F90938000E5
:1002600024C094B59F7702C094B59F7D94BD1DC0F6
:10027000909190009F7707C0909190009F7D03C060
:1002800090919000977F909390000FC09091C00044
:100290009F7703C09091C0009F7D9093C00005C0E0
:1002A0009091C200977F9093C200E82FF0E0EE0F8C
:1002B000FF1FE757FE4FA591B4919FB7F8948C911B
:1002C000209528232C939FBF0895DC019091A401D1
:1002D000992361F0699FB0011124672F949FA001B9
:1002E0001124452F929F90011124232F3091AA01B0
:1002F0008091A701E091A501F091A601381308C0F3
:10030000CD01880F991F8A0F9B1F8E0F9F1F0BC057
:10031000CD01880F991F880F991F8E0F9F1FFC0119
:10032000E30FF11D10823091A701FC01E30FF11DD5
:1003300060833091A801FC01E30FF11D40833091EF
:10034000A901FC01E30FF11D2083089520914C01C8
:10035000211103C08FEF9FEF08955FB7F89422E05B
:100360002093E9002091F20030E01216130614F4F5
:1003700021E030E0422FFC0184E6415038F028981B
:1003800080934B019091F1009193F7CF21153105A6
:1003900021F08091F200882319F05FBFC901089510
:1003A0008BE68093E800F9CF2FB7F89483E0809331
:1003B000E9009091E800892F807295FF04C0909128
:1003C000F20080E4891B2FBF0895809143018111C1
:1003D0000DC082E080933F0184E080934001109241
:1003E00042011092410181E0809343018FE391E04B
:1003F00008954091390150913A012091370130918F
:10040000380142175307B4F49091E8009570E1F376
:100410009091E80092FD19C08093F100809139011C
:1004200090913A0101968F739927892B19F48EEFD9
:100430008093E8008091390190913A010196909360
:100440003A018093390181E0089580E00895DF92B8
:10045000EF92FF920F931F93CF93DF93D82E8A01D1
:100460007B01E40EF51EEB01CE15DF0571F0D7FE22
:1004700003C0FE01849101C088810E94F901219688
:100480008111F2CF8FEF9FEF01C0C801DF91CF91B3
:100490001F910F91FF90EF90DF9008950F931F939E
:1004A000CF93DF931F92CDB7DEB782E0898342E41A
:1004B00050E068ED70E080E80E9427020E94E501AC
:1004C000DC0112960D911C9113970115110589F00D
:1004D000D801ED91FC910280F381E02DBE016F5FA8
:1004E0007F4FC801099597FD04C0F801008511856B
:1004F000ECCF89810F90DF91CF911F910F910895DB
:10050000615030F02091F100FC0120830196F8CF7A
:10051000289884E680934B010895CF92DF92EF9262
:10052000FF920F931F93CF93DF936C017A018B019E
:10053000C0E0D0E0CE15DF0581F0D8016D918D01CE
:10054000D601ED91FC910190F081E02DC601099555
:10055000892B11F02196EECF7E01C701DF91CF915B
:100560001F910F91FF90EF90DF90CF900895CF9360
:10057000DF931F92CDB7DEB76983DC01ED91FC916B
:100580000280F381E02D41E050E0BE016F5F7F4FBC
:1005900009950F90DF91CF91089583E08093E90052
:1005A0008091F200882319F08AE38093E80008958F
:1005B0000E94D40190E00895CF93DF931F92CDB7AE
:1005C000DEB7FC018485958597FD05C02FEF3FEFD1
:1005D000358724870BC0CE0101960E94A6010197A2
:1005E00019F4898190E002C08FEF9FEF0F90DF91A7
:1005F000CF9108950F931F93CF93DF931F92CDB7A1
:10060000DEB78C01FC018485958597FF0EC0CE0175
:1006100001960E94A601019719F4898190E002C019
:100620008FEF9FEFF80195878487F8018485958582
:100630000F90DF91CF911F910F910895FC01848558
:10064000958597FD0BC09FB7F89482E08093E900F1
:100650008091F2009FBF90E0019608959FB7F894B3
:1006600082E08093E9008091F2009FBF90E00895BE
:10067000089580E090E00895CF93DF9390E0FC012F
:10068000E659FE4F2491FC01E956FE4F84918823E0
:1006900061F190E0880F991FFC01E653FF4FC5916F
:1006A000D491FC01E757FE4FA591B491611109C0A7
:1006B0009FB7F8948881209582238883EC912E231C
:1006C0000BC0623061F49FB7F8948881322F309567
:1006D00083238883EC912E2B2C939FBF06C08FB76A
:1006E000F894E8812E2B28838FBFDF91CF91089556
:1006F0003FB7F8948091330190913401A091350176
:10070000B091360126B5A89B05C02F3F19F0019680
:10071000A11DB11D3FBFBA2FA92F982F8827820F87
:10072000911DA11DB11DBC01CD0142E0660F771FD7
:10073000881F991F4A95D1F708950F931F93CF9360
:10074000DF93CDB7DEB729970FB6F894DEBF0FBEA3
:10075000CDBF8091A5019091A601892B09F4A2C07B
:100760000E9478030091AB011091AC012091AD0182
:100770003091AE01DC01CB01801B910BA20BB30BBE
:100780008C329140A105B10558F3F8948091A101F4
:100790009091A2019A838983E091A501F091A6012D
:1007A000DF0111968081898790919D01E091AF01D1
:1007B000F091B0018091B101992309F42EC090818C
:1007C000982B98879081809589238F838F818C8344
:1007D00088E08B8358856F8149853B812C81898195
:1007E0009A81508347FD252F3A952083262F39F093
:1007F000441F00C000006083000000C0F2CF38E05A
:100800004D9160830000019761F7F093B001E09390
:10081000AF0149873B832C8338C09081982B988700
:100820009081809589238F838F818E8388E08D834B
:1008300058856F8149853D812E8189819A815083B8
:1008400047FD252F00C000C0208300C000C000C0AD
:1008500000C000C060830000262F3A9541F0441F7D
:10086000000000C000C000C000C000C0E8CF38E0F9
:100870004D9100C0608300C0019709F7F093B0016B
:10088000E093AF0149873D832E839A8389837894CF
:100890000E9478036093AB017093AC018093AD012B
:1008A0009093AE0129960FB6F894DEBF0FBECDBF70
:1008B000DF91CF911F910F9108958F929F92AF92E8
:1008C000BF92CF92DF92EF92FF926B017C010E9468
:1008D00078034B015C01C114D104E104F104F1F08F
:1008E0000E947803DC01CB0188199909AA09BB0988
:1008F000883E9340A105B10570F321E0C21AD108EA
:10090000E108F10888EE880E83E0981EA11CB11C56
:10091000C114D104E104F10419F7DDCFFF90EF9089
:10092000DF90CF90BF90AF909F908F9008958F925F
:100930009F92AF92BF92CF92DF92EF92FF920F936E
:100940001F93CF93DF936C017B018A0180910B0190
:10095000882309F45CC080914C01882309F457C0B6
:1009600080913D0180FF05C08091E000826080930E
:10097000E000E801B12C8AEFA82E93E0892E2AE34B
:10098000922E209711F4BB20D9F10E94D40181113D
:100990000AC0AA94AA20D9F161E070E080E090E05A
:1009A0000E945D04EECF282F30E0C217D3070CF46D
:1009B0008C2F9FB7F8948092E9002091E80025FFE2
:1009C0001DC0282F30E0C21BD30BF701815020F04F
:1009D00041914093F100FACFE20EF31EBB2019F0D3
:1009E0009092E8000AC08091E80085FD07C09092CF
:1009F000E800BB24B394209709F0B12C9FBFC1CF6E
:100A00005D9884E680933E011016110644F081E063
:100A100090E0F6019383828380E090E001C0C801FA
:100A2000DF91CF911F910F91FF90EF90DF90CF90CA
:100A3000BF90AF909F908F900895009769F0FC0150
:100A400001900020E9F73197AF01481B590BBC0119
:100A50008DE491E00C94970480E090E008958F92EB
:100A60009F92AF92BF920F931F93CF93DF93CDB717
:100A7000DEB7A1970FB6F894DEBF0FBECDBF19A2A7
:100A8000423008F44AE08E010F5D1F4F842E912CF6
:100A9000A12CB12CA50194010E943F0AE62FB901B7
:100AA000CA0101501109EA3014F4E05D01C0E95CAB
:100AB000D801EC93232B242B252B61F7C8010E942E
:100AC0001D05A1960FB6F894DEBF0FBECDBFDF9116
:100AD000CF911F910F91BF90AF909F908F900895ED
:100AE0000E94880B1F920F920FB60F9211248F93C2
:100AF0009F938091E1009091E100937F9093E100BA
:100B000083FF0FC01092E90091E09093EB001092E8
:100B1000EC0092E39093ED0010924C0198E09093DA
:100B2000F00082FF20C093E09093E9009091F200E2
:100B3000992319F09AE39093E80090913E0199234C
:100B400039F090913E01915090933E01992389F1A3
:100B500090914B01992339F090914B0191509093D2
:100B60004B01992341F184FF10C08091E2008E7EF9
:100B700081608093E2008091E1008F7E8093E100AC
:100B800080913D018E7E806111C080FF16C08091F2
:100B9000E2008E7E80618093E2008091E1008E7E93
:100BA0008093E10080913D018E7E816080933D01C4
:100BB00004C05D9ACDCF289AD6CF9F918F910F9088
:100BC0000FBE0F901F9018951F920F920FB60F92A5
:100BD0001124CF92DF92EF92FF920F931F932F93E6
:100BE0003F934F935F936F937F938F939F93AF93B5
:100BF000BF93EF93FF93CF93DF93CDB7DEB76C979F
:100C0000DEBFCDBF1092E9008091E80083FFFBC1F9
:100C100068E0CE0145960E94800282EF8093E80052
:100C20008D8987FF05C09091E80090FFFCCF03C03D
:100C30009EEF9093E800982F907609F0C6C09E89A9
:100C40004F89588D2F89F88C91110CC0803829F468
:100C500080913C018093F10002C01092F10010924B
:100C6000F10045C1913051F4811141C1413051052C
:100C700009F03DC180913C018D7F0BC0933061F440
:100C8000811135C14130510509F031C180913C01DC
:100C9000826080933C012BC1953049F48091E8003B
:100CA00080FFFCCF822F80688093E30020C19630C4
:100CB00009F05EC00B8D1C8D22E01092E9001092AD
:100CC0003A0110923901F21232C01092380110929A
:100CD00037010E944E0299E0BE016F5F7F4FDB013A
:100CE000E92F1D92EA95E9F79983FA8291E09E83B4
:100CF00090EA98879AEF99872091390130913A01CB
:100D0000275F3F4F3C832B838D831092E900109225
:100D10003A0110923901109338010093370149E0EC
:100D200050E080E00E9427020E944E02E0C0109333
:100D30003801009337010E94E501DC0112960D9104
:100D40001C9113970115110509F4BBC0D801ED9151
:100D5000FC910480F581E02DBE016B5E7F4FC801E0
:100D60000995009709F0C7C0F80100851185EACF01
:100D7000973009F445C1983021F481E08093F10067
:100D8000B6C0993009F0B3C0837009F039C1E3E10E
:100D9000F1E081E031E096E32081211109C08EE786
:100DA0008093EA001092EA008F8980934C019FC0E3
:100DB0008093E9003093EB0021912093EC00909315
:100DC000ED008F5F873041F7EACF8B8D9C8D1092BD
:100DD000E90010923A011092390190933801809302
:100DE0003701898D811153C08E899D89913A49F4CB
:100DF000813209F005C147E050E064E071E080E035
:100E0000BBC0913209F0FCC0833269F48F89988DA0
:100E1000A0E0B0E08093000190930101A093020153
:100E2000B093030164C0803269F48091E80082FFCE
:100E3000FCCF67E084E091E00E9480028BEF80931A
:100E4000E80055C0823209F052C08F8980930B01AF
:100E5000EEEFFFE7859194918B3F9C4D19F0E0E018
:100E6000F8E002C0EEEFFAE08091040190910501F4
:100E7000A0910601B0910701803B9440A105B10506
:100E800009F09EC080910B0180FF79C099C00E943B
:100E9000E501FC01028113810115110509F4B0C0BF
:100EA000D801ED91FC910190F081E02DBE016B5EC7
:100EB0007F4FC801099581111AC0F801008511857D
:100EC000EBCFF1E0FF1609F44EC0F3E0FF1298C03B
:100ED0008F89882309F44AC0823089F440E862E1AE
:100EE00089E391E00E946C08882309F489C08EEFA1
:100EF0008093E80088C018161906CCF381C08130B1
:100F000029F440E868E080E391E0ECCF833009F019
:100F100077C00E94E501DC011296ED90FC901397DA
:100F20008E010F5F1F4F6801E114F10479F0D701C2
:100F3000ED91FC910680F781E02DB801C70109957C
:100F4000080F111DF701E084F184EECFD8011C9247
:100F5000F60101900020E9F73197BF016C197D0976
:100F600040E0C601BFCF6EE171E002C06AE171E00E
:100F7000FB01449150E080E80E942702B8CFEE3F89
:100F80002AE0F20751F0808191818737A7E79A071D
:100F900021F09093FF0A8093FE0A87E797E79183F9
:100FA00080838091600080933B019BE088E10FB6D5
:100FB000F894A895809360000FBE9093600097CF3F
:100FC000808191818737974709F091CFA8958091CB
:100FD000600088618093600080913B018093600095
:100FE000EE3FBAE0FB0739F08091FE0A9091FF0ACC
:100FF000918380837CCF1092FF0A1092FE0A77CFF4
:1010000081E28093EB006C960FB6F894DEBF0FBEC2
:10101000CDBFDF91CF91FF91EF91BF91AF919F91A4
:101020008F917F916F915F914F913F912F911F9180
:101030000F91FF90EF90DF90CF900F900FBE0F9029
:101040001F9018951F920F920FB60F9211242F9395
:101050003F938F939F93AF93BF9380912F01909174
:101060003001A0913101B091320130912E0123E085
:10107000230F2D3720F40196A11DB11D05C026E8D0
:10108000230F0296A11DB11D20932E0180932F01E5
:1010900090933001A0933101B093320180913301DC
:1010A00090913401A0913501B09136010196A11DB6
:1010B000B11D8093330190933401A0933501B09317
:1010C0003601BF91AF919F918F913F912F910F90DA
:1010D0000FBE0F901F901895DF92EF92FF920F9323
:1010E0001F93CF93DF93D82EF92EE42E062F10E016
:1010F000C8010196880F0E94F90183E00E94F9015E
:10110000CD2DDF2D0C0F1D1FC017D10789F0E7FE75
:1011100003C0FE01849101C088810E94F901F82E6C
:1011200080E00E94F9018F2121968111EDCF01C04D
:1011300081E0DF91CF911F910F91FF90EF90DF90B1
:1011400008951092500110924F0188EE93E0A0E0B4
:10115000B0E08093510190935201A0935301B0935A
:1011600054018DE191E090934E0180934D018FEFFA
:101170009FEF90935A018093590110929E01109213
:10118000A4011092AB011092AC011092AD0110922B
:10119000AE0181E08093AA018093A7011092A8017B
:1011A00092E09093A90180939D0188E190E0909353
:1011B000A2018093A1010E94670A9093A6018093E7
:1011C000A501009761F028E1FC0111922A95E9F749
:1011D00088E090E09093A00180939F0108C0109256
:1011E000A2011092A1011092A00110929F0189E02A
:1011F0008093A30180919E01882339F061E089E00A
:101200000E943C0389E00E940701E0EAF1E0E491DA
:10121000F0E0EE0FFF1FE757FE4F859194919093FA
:10122000B0018093AF01E3E7F1E0E491E093B10115
:101230000895789484B5826084BD84B5816084BD4E
:1012400085B5826085BD85B5816085BD80916E0064
:10125000816080936E001092810080918100826095
:1012600080938100809181008160809381008091D2
:1012700080008160809380008091910082608093E3
:101280009100809191008160809391008091900005
:101290008160809390008091C10084608093C10040
:1012A0008091C10082608093C1008091C100816003
:1012B0008093C1008091C30081608093C3008091BE
:1012C000C00082608093C0008091C20081608093E2
:1012D000C20080917A00846080937A0080917A00C5
:1012E000826080937A0080917A00816080937A0096
:1012F00080917A00806880937A0010924C0110925D
:101300003C0110923D018091D70081608093D7000D
:1013100080EA8093D80089B5806189BD89B58260F3
:1013200089BD09B400FEFDCF61E070E080E090E08F
:101330000E945D048091D8008F7C80618093D800EA
:101340008091E000807F8093E0008091E1008E7EBC
:101350008093E1008DE08093E200559A209A80917D
:10136000A30187FD07C061E00E943C038091A301B7
:101370000E94070181E080939E010E949D038FEFF0
:101380009FEF90935A018093590100E010E084E1AF
:10139000C82ED12CE12CF12CDC2DC0E08C2F90E05C
:1013A00020919F013091A0018217930738F42D2FCF
:1013B00040E06D2F0E946501CF5FF0CF0E949D033A
:1013C0004AE0C701B6010E942F058BE291E00E941E
:1013D0001D0562E370E080E090E00E945D048FEF05
:1013E000C81AD80AE80AF80A88ECC816D104E10439
:1013F000F10491F6DC2DC0E08C2F90E020919F014C
:101400003091A0018217930738F42D2F40E06D2F03
:101410000E946501CF5FF0CF0E949D034AE0C701A3
:10142000B6010E942F058BE291E00E941D0562E348
:1014300070E080E090E00E945D0481E0C81AD1086D
:10144000E108F10884E1C816D104E104F10491F641
:101450000115110509F49BCF0E94000098CF8091DF
:10146000A5019091A601009711F00E94FF0A8091BA
:10147000A30187FD03C060E00C943C030895A1E242
:101480001A2EAA1BBB1BFD010DC0AA1FBB1FEE1FFE
:10149000FF1FA217B307E407F50720F0A21BB30B49
:1014A000E40BF50B661F771F881F991F1A9469F7C5
:1014B00060957095809590959B01AC01BD01CF0121
:1014C0000895EE0FFF1F0590F491E02D09940F93FE
:1014D0001F93CF93DF938230910510F482E090E068
:1014E000E091B401F091B50120E030E0A0E0B0E07F
:1014F000309719F1408151810281138148175907B2
:10150000C8F08417950769F4109731F012960C9380
:10151000129713961C9327C00093B4011093B50142
:1015200022C02115310519F04217530718F49A010A
:10153000BD01EF01DF01F801DBCF21153105F9F025
:10154000281B390B2430310580F48A819B81611579
:10155000710521F0FB019383828304C09093B50150
:101560008093B401FE01329644C0FE01E20FF31FE6
:101570008193919322503109398328833AC0209175
:10158000B2013091B301232B41F420910E0130912F
:101590000F013093B3012093B20120910C013091DF
:1015A0000D012115310541F42DB73EB740911001D1
:1015B00050911101241B350BE091B201F091B30160
:1015C000E217F307A0F42E1B3F0B2817390778F01A
:1015D000AC014E5F5F4F2417350748F04E0F5F1F79
:1015E0005093B3014093B2018193919302C0E0E024
:1015F000F0E0CF01DF91CF911F910F910895CF932C
:10160000DF93009709F481C0FC01329713821282A4
:10161000A091B401B091B501109781F4208131817E
:10162000820F931F2091B2013091B301281739071F
:1016300051F5F093B301E093B20167C0ED0120E0F2
:1016400030E0CE17DF0740F44A815B819E014115EF
:101650005105F1F0EA01F5CFD383C2834081518176
:10166000840F951FC817D90759F488819981840F71
:10167000951F0296918380838A819B8193838283C5
:101680002115310529F4F093B501E093B4013DC073
:10169000E901FB83EA8349915991C40FD51FEC17E7
:1016A000FD0761F480819181840F951F0296E90105
:1016B00099838883828193819B838A83E0E0F0E031
:1016C00012968D919C911397009719F0FD01DC0102
:1016D000F7CF8D919C9111979D012E5F3F4F820F07
:1016E000931F2091B2013091B3012817390769F493
:1016F000309729F41092B5011092B40102C0138200
:101700001282B093B301A093B201DF91CF910895FB
:1017100081E090E0F8940C948D0B10E0CCEDD0E0DB
:1017200004C0FE010E94610A2196CD3DD107C9F790
:04173000F894FFCF5B
:10173400FFFFFFFF00E10000000000000000B60111
:10174400800000C1808100000000000000B7029703
:0E17540004D802CD021E03DC02FA020D0A00C8
:1070000055C000006EC000006CC000006AC00000E7
:1070100068C0000066C0000064C0000062C00000DC
:1070200060C000005EC00000FCC400005AC0000048
:1070300058C0000056C0000054C0000052C00000FC
:1070400050C000005DC000004CC000004AC00000FD
:1070500048C0000046C0000044C0000042C000001C
:1070600040C000003EC000003CC000003AC000002C
:1070700038C0000036C0000034C0000032C000003C
:1070800030C000002EC000002CC000002AC000004C
:1070900028C0000026C0000024C0000022C000005C
:1070A00020C000001EC000001CC0000011241FBE34
:1070B000CFEFDAE0DEBFCDBF11E0A0E0B1E0E6E463
:1070C000FFE702C005900D92A43BB107D9F711E08C
:1070D000A4EBB1E001C01D92AD3CB107E1F74FD385
:1070E00030C78ECFF89410926F001092810081E02B
:1070F00085BF15BE47985D9A289A0C9400000895A4
:107100001F920F920FB60F9211242F938F939F937C
:10711000EF93FF9310928500109284008091B40148
:107120009091B501009741F001979093B50180933C
:10713000B401892B09F45D9A8091B6019091B70151
:10714000009741F001979093B7018093B601892B86
:1071500009F4289A8091BA019091BB01019690930D
:10716000BB018093BA01E0E0F0E0859194918F5FDC
:107170009F4F49F08091B8019091B9010196909389
:10718000B9018093B801FF91EF919F918F912F9159
:107190000F900FBE0F901F90189584E08093E90028
:1071A0000DC08091E8008B778093E80003C08EB318
:1071B000882351F08091E80082FFF9CF8091E800A8
:1071C00085FFEFCF8091F1000895982F83E08093A1
:1071D000E9008091E80085FD0DC08091E8008E7780
:1071E0008093E80003C08EB3882369F08091E800A3
:1071F00080FFF9CF9093F1005D9884E690E0909342
:10720000B5018093B40108954F925F926F927F927F
:107210008F929F92AF92BF92CF92DF92EF92FF92A6
:107220000F931F93CF93DF9384E08093E9008091C5
:10723000E80082FF57C2289884E690E09093B70157
:107240008093B601AADF182F853481F48CE49DE188
:107250009093B9018093B80107B600FCFDCFF9996E
:10726000FECF81E180935700E89503C0843519F47F
:1072700094DF8DE00DC28C34E1F38035D1F3843797
:1072800021F484E4A2DF80E003C2813611F489E5B1
:10729000FFC18134B1F481DF182F7FDF90E0880FC8
:1072A000991FAA2797FDA095BA2F312F330F20E001
:1072B000442737FD4095542F822B932BA42BB52BBD
:1072C000B8C1803711F483E5E3C1833549F4C0E0E8
:1072D000D1E089917ADF21E0C730D207D1F7D9C157
:1072E000863521F481E371DF80E3D2C1833731F445
:1072F00087E86BDF85E969DF8EE1CAC18536B9F4BD
:10730000E0E0F0E093E085E090935700E89507B661
:1073100000FCFDCF80935700E89507B600FCFDCF39
:10732000E058FF4FA0E7E030FA0771F7A2CF8237AD
:1073300039F4E1E0F0E089E0809357008491A8C13E
:10734000863439F4E0E0F0E089E0809357008491DE
:107350009FC18E3439F4E3E0F0E089E08093570078
:10736000849196C1813539F4E2E0F0E089E08093C0
:10737000570084918DC1823631F489E526DF80E0A3
:1073800024DF80E885C1823419F0873609F0E5C032
:107390001092B9011092B80100DF082FFEDEF82E1E
:1073A000FCDE682E8554823008F071C1902F80E099
:1073B000CF2DD0E0C82BD92B10926F00173609F0D3
:1073C0004BC081E180935700E895DD24CC24C39421
:1073D0003FC0E090BD01F090BE010091BF0110914F
:1073E000C001B6E46B16D9F4ED2DF0E0EE29FF29CB
:1073F000E4918E2FEADEDD2081F082E090E0A0E0D3
:10740000B0E0E80EF91E0A1F1B1FE092BD01F092CA
:10741000BE010093BF011093C001DC2418C0D80145
:10742000C701B695A7959795879575D5CEDE82E06D
:1074300090E0A0E0B0E0E80EF91E0A1F1B1FE092EA
:10744000BD01F092BE010093BF011093C0012197CE
:10745000209709F0BECF7DC08090BD019090BE0105
:10746000A090BF01B090C00196E4691609F05DC01C
:1074700083E0F40180935700E89507B600FCFDCF48
:1074800054C0F6E46F1661F5772031F1E090BD014C
:10749000F090BE010091BF011091C0017EDED82E98
:1074A000CC24852D90E08C299D29F7010C01409278
:1074B0005700E895112482E090E0A0E0B0E0E80EEB
:1074C000F91E0A1F1B1FE092BD01F092BE0100933E
:1074D000BF011093C00102C060DE582E742423C087
:1074E000E090BD01F090BE010091BF011091C0017C
:1074F00016950795F794E79450DE682FC70113D5CA
:107500008091BD019091BE01A091BF01B091C001D9
:107510000296A11DB11D8093BD019093BE01A09361
:10752000BF01B093C001219704C05524772444249F
:107530004394209709F0A5CF96E4691641F485E0BD
:10754000F40180935700E89507B600FCFDCF8DE06D
:107550003CDE82E080936F009CC0833471F4009124
:10756000BD011091BE0119DE90E021E0F8010C018F
:1075700020935700E89511247CCE833619F5E090CE
:10758000BD01F090BE010091BF011091C00105DE68
:10759000F701E16090E021E00C0120935700E895AD
:1075A000112482E090E0A0E0B0E0E80EF91E0A1F8E
:1075B0001B1FE092BD01F092BE010093BF0110932A
:1075C000C00157CE8D3661F4E091BD01F091BE014E
:1075D00085E080935700E89507B600FCFDCF49CEC3
:1075E000823551F4E091BD01F091BE0105911491F5
:1075F000812FEBDD802F4CC0843421F5E090BD015C
:10760000F090BE010091BF011091C0011695079541
:10761000F794E794C2DD682FC70185D48091BD013E
:107620009091BE01A091BF01B091C0010296A11D31
:10763000B11D8093BD019093BE01A093BF01B09393
:10764000C00117CE843609F5E090BD01F090BE016F
:107650000091BF011091C001D801C701B695A7954F
:107660009795879558D4B1DD82E090E0A0E0B0E036
:10767000E80EF91E0A1F1B1FE092BD01F092BE0129
:107680000093BF011093C00104C08B3111F08FE350
:107690009CDD83E08093E9009091E8008091E80010
:1076A0008E778093E80095FF04C010C08EB38823C6
:1076B000C9F08091E80080FFF9CF8091E8008E77D3
:1076C0008093E80003C08EB3882361F08091E800C6
:1076D00080FFF9CF84E08093E9008091E8008B7708
:1076E0008093E800DF91CF911F910F91FF90EF9071
:1076F000DF90CF90BF90AF909F908F907F906F90D2
:107700005F904F9008959091C501892F8F778132B6
:1077100049F58091C6018032A1F0813219F5913A84
:1077200009F58091E800877F8093E8008CE091E084
:1077300067E070E027D28091E8008B778093E800C3
:107740000895913279F48091E800877F8093E80072
:107750008CE091E067E070E079D28091E8008E776C
:107760008093E800089582E061EC42E0D1D083E0AC
:1077700061E842E1CDD084E060E842E1C9C01F93F6
:10778000209100081092000844B714BE88E10FB69B
:10779000F89480936000109260000FBE80E8E0E0F3
:1077A000F0E00FB6F89480936100E09361000FBEA3
:1077B00031E035BF92E095BF3F9A209A559A809369
:1077C00061001092610047985D9A289A1092890092
:1077D0008AEF8093880090936F0083E0809381000C
:1077E000859194918F5F9F4F11F03093BC01942F3E
:1077F00041FF19C0809109012817A9F08093000862
:10780000789480911301882339F08091BA01909186
:10781000BB018F5E9240C8F3F8941092000881E09B
:10782000809313010CC090FF04C08091BC01882399
:1078300051F493FF09C080910901281729F0809124
:10784000BC01882309F04EDCD4D078941092B901A1
:107850001092B8011EEF20C0D7DC4BD38091B80145
:107860009091B90181549F4110F0109213018091C1
:10787000C1019091C20101969093C2018093C10110
:10788000292F97FF03C0512F591B252F220F28178F
:1078900010F4479801C0479A809113018823E1F6BC
:1078A0008091E00081608093E0001CDC80E090E04B
:1078B0001F910895FA01923049F0933061F09130B0
:1078C000F9F484E191E022E130E01EC086E291E02B
:1078D0002EE330E019C0882329F484E691E024E007
:1078E00030E012C0813029F488E691E02EE130E0EA
:1078F0000BC0823029F488E891E02AE230E004C02D
:1079000080E090E020E030E091838083C901089519
:107910008093E9008091EB0081608093EB001092EE
:10792000ED006093EC004093ED008091EE00881F25
:107930008827881F08958091C50188238CF403C08F
:107940008EB38823B1F08091E80082FFF9CF809157
:10795000E8008B778093E80008958EB3882349F080
:107960008091E80080FFF9CF8091E8008E778093C6
:10797000E8000895EF92FF920F931F9345D04CD0EB
:1079800008ED10E0F80180818F7780838081806826
:10799000808380818F7D808319BC1EBA1092C301C1
:1079A00080EEE82EF12CF70180818B7F8083F80137
:1079B00080818160808380E060E042E0A9DFE1EEC9
:1079C000F0E080818E7F8083E2EEF0E08081816054
:1079D0008083808188608083F70180818E7F8083AF
:1079E000F8018081806180831F910F91FF90EF905B
:1079F0000895E7EDF0E08081816080838AE482BFB2
:107A000081E08093C401B6CFE8EDF0E080818E7F05
:107A100080831092E20008951092DA001092E10043
:107A200008951F920F920FB60F9211242F933F9338
:107A30004F935F936F937F938F939F93AF93BF9376
:107A4000EF93FF938091DA0080FF1BC08091D800F4
:107A500080FF17C08091DA008E7F8093DA008091DA
:107A6000D90080FF0BC080E189BD82E189BD09B4E6
:107A700000FEFDCF81E08EBB3BD203C019BC1EBA15
:107A800037D28091E10080FF17C08091E20080FF33
:107A900013C08091E2008E7F8093E2008091E2002B
:107AA00080618093E2008091D80080628093D8004A
:107AB00019BC85E08EBB1CD28091E10084FF2CC0F4
:107AC0008091E20084FF28C080E189BD82E189BD08
:107AD00009B400FEFDCF8091D8008F7D8093D8003F
:107AE0008091E1008F7E8093E1008091E2008F7EA3
:107AF0008093E2008091E20081608093E2008091B7
:107B0000C301882331F48091E30087FD02C081E046
:107B100001C084E08EBBECD18091E10083FF21C0E5
:107B20008091E20083FF1DC08091E100877F8093F8
:107B3000E10082E08EBB1092C3018091E1008E7F54
:107B40008093E1008091E2008E7F8093E20080913B
:107B5000E20080618093E20080E060E042E0D8DEF5
:107B6000C7D1FF91EF91BF91AF919F918F917F917D
:107B70006F915F914F913F912F910F900FBE0F909A
:107B80001F9018959C014091CB015091CC01461754
:107B9000570718F4F90190E044C06115710511F020
:107BA000AB01F8CF8091E8008E778093E80040E049
:107BB00050E0F0CF8EB3882309F444C0853009F437
:107BC00043C08091E80083FF02C081E00895809166
:107BD000E80082FD31C08091E80080FF22C08091E2
:107BE000F3009091F200782F60E0292F30E0262BEF
:107BF000372B07C081918093F100415050402F5F97
:107C00003F4F4115510519F02830310598F390E0A8
:107C10002830310509F491E08091E8008E77809357
:107C2000E8004115510531F6992321F605C08EB3C0
:107C3000882341F0853041F08091E80082FFF7CF42
:107C400080E0089582E0089583E008959C01611525
:107C5000710529F48091E8008B778093E800F901A1
:107C600026C08EB3882391F1853091F18091E80090
:107C700083FF02C081E008958091E80082FFF1CF88
:107C800006C08091F10081936150704059F02091BD
:107C9000F3008091F200322F20E090E0822B932BB2
:107CA000892B79F78091E8008B778093E800611544
:107CB0007105B9F605C08EB3882341F0853041F0D7
:107CC0008091E80080FFF7CF80E0089582E008957A
:107CD00083E008950F931F93DF93CF9300D0CDB728
:107CE000DEB7E5ECF1E08091F100819381E0ED3CBD
:107CF000F807C9F708DD8091E80083FFE4C08091B0
:107D0000C5019091C601953009F46DC0963040F4DC
:107D1000913081F1913070F0933009F0D4C02AC0D5
:107D2000983009F4A3C0993009F4B2C0963009F034
:107D3000CAC07CC0803809F4C6C0823809F0C3C00C
:107D40008091C90187708093E9008091EB001092C7
:107D5000E9002091E800277F2093E80090E025E0EB
:107D6000969587952A95E1F781708093F10010929E
:107D7000F10087C0882319F0823009F0A4C08F7108
:107D8000823009F0A0C08091C701882331F520918D
:107D9000C901277009F497C02093E9008091EB0096
:107DA00080FF1BC0933021F48091EB00806213C0F0
:107DB0008091EB0080618093EB0081E090E002C055
:107DC000880F991F2A95E2F78093EA001092EA0043
:107DD0008091EB0088608093EB001092E900809125
:107DE000E800877F51C0882309F06DC01091C7015A
:107DF0001F770FB7F8948091E800877F8093E800A1
:107E00009ADD8091E80080FFFCCF8091E3008078CC
:107E1000812B8093E30080688093E300112311F4A9
:107E200082E001C083E08EBB0FBF4DC0805882301E
:107E300008F049C08091C7019091C8016091C901C3
:107E4000AE014F5F5F4F36DDBC01009709F43BC0C8
:107E50008091E800877F8093E80089819A8192DE93
:107E60008091E8008B778093E8002DC0803859F529
:107E70008091E800877F8093E8008091C301809320
:107E8000F1008091E8008E778093E80054DD1BC0FC
:107E90008823C9F49091C7019230A8F48091E8003A
:107EA000877F8093E8009093C30145DD8091C301F3
:107EB000882331F48091E30087FD02C081E001C096
:107EC00084E08EBB50DC8091E80083FF0AC0809183
:107ED000EB0080628093EB008091E800877F8093C5
:107EE000E8000F900F90CF91DF911F910F910895AF
:107EF00008951F938EB3882361F01091E9001092CA
:107F0000E9008091E80083FF01C0E4DE1770109360
:107F1000E9001F910895F999FECF92BD81BDF89AAD
:107F2000992780B50895262FF999FECF1FBA92BDE3
:107F300081BD20BD0FB6F894FA9AF99A0FBE01964A
:067F40000895F894FFCF44
:107F46004341544552494E41007700080000000065
:107F56000000080112011001020000084F1B0592E3
:107F660001000201000109023E00020100803209FF
:107F7600040000010202010005240010010424028D
:107F8600040524060001070582030800FF09040111
:107F960000020A000000070504021000010705831D
:107FA60002100001040309041E03500072006F0052
:107FB60020004D006900630072006F00200035004C
:107FC60056002000200000002A03530070006100C4
:107FD60072006B00460075006E00200045006C00C4
:107FE60065006300740072006F006E006900630034
:047FF6007300000014
:040000030000700089
:00000001FF